:10000000481A002075180000015F00002D1800003C
:100010002D1800002D1800002D1800002D180000CC
:10002000000000000000000000000000F1140000CB
:100030002D18000000000000951400002D1800008D
:100040008115000081150000811500008115000058
:100050008115000081150000811500008115000048
:100060008115000081150000811500008115000038
:100070008115000081150000811500008115000028
:100080008115000081150000811500008115000018
:100090008115000081150000811500008115000008
:1000A00081150000811500008115000081150000F8
:1000B00081150000811500008115000081150000E8
:1000C00081150000811500008115000081150000D8
:1000D00081150000811500008115000081150000C8
:1000E00081150000811500008115000081150000B8
:1000F00081150000811500008115000081150000A8
:100100008115000081150000811500008115000097
:100110008115000081150000811500008115000087
:100120008115000081150000811500008115000077
:100130008115000081150000811500008115000067
:100140008115000081150000811500008115000057
:040150008115000015
:1001540053B94AB9002908BF00281CBF4FF0FF312A
:100164004FF0FF3000F00CB8ADF1080C6DE904CE8F
:1001740000F008F8DDF804E0DDE9022304B070477C
:10018400704700BF2DE9F04786468C460846089E16
:10019400154674461946002B40F0C1808542B2FAD8
:1001A40082F245D94AB1C2F1200300FA02FC95401B
:1001B40094402EFA03F343EA0C0C4FEA154EA8B20E
:1001C400230CBCFBFEF80EFB18CC08FB00F943EA39
:1001D4000C43994528D9EB1808F1FF3704D2994507
:1001E40002D9A8F102072B44A3EB0903A4B2B3FB81
:1001F400FEFC0EFB1C330CFB00F044EA0344A0425B
:1002040014D92C190CF1FF3304D2A04202D9ACF159
:1002140002032C44241A43EA07401EB1D4400023AD
:1002240034607360BDE8F0874746DDE76346F1E775
:1002340092BB431B01214FEA154EAFB2200CB3FB16
:10024400FEFC0EFB1C330CFB07F840EA0343984505
:1002540061D9EB180CF1FF3004D2984502D9ACF106
:1002640002002B44A3EB0803A4B2B3FBFEFC0EFB79
:100274001C330CFB07F744EA0344A7424DD92C195D
:100284000CF1FF3304D2A74202D9ACF102032C448F
:10029400E41B43EA0040C0E7C2F1200395409440C8
:1002A40020FA03F12EFA03F34FEA154E9040AFB251
:1002B4000343B1FBFEFC0EFB1C10190C0CFB07F8EE
:1002C40041EA0041884522D969180CF1FF3004D273
:1002D400884502D9ACF102002944A1EB08019BB284
:1002E400B1FBFEFC0EFB1C110CFB07F743EA0143B8
:1002F4009F420ED9EB180CF1FF3104D29F4202D970
:10030400ACF102012B44DB1B41EA004193E7604658
:10031400E3E76146F7E76046A4E76346B8E783424C
:1003240006D916B9002108467CE7C6E900E0F9E7DA
:10033400B3FA83F78FB9834201D3724508D8BEEB71
:10034400020460EB030301209C461EB9002169E707
:100354003846FAE7C6E9004CF8E7C7F1200CBB4081
:100364000EFA07F522FA0CF42EFA0CF1BA401C43EB
:1003740020FA0CF3B8404FEA144901431FFA84FEF3
:10038400B3FBF9F809FB18300B0C08FB0EFA43EA2F
:1003940000439A4540D9E31808F1FF3004D29A4546
:1003A40002D9A8F102002344A3EB0A0389B2B3FBE8
:1003B400F9F809FB183308FB0EFE41EA03418E45A8
:1003C4002CD9611808F1FF3304D28E4502D9A8F163
:1003D4000203214443EA0040A1EB0E01A0FB029872
:1003E4004145CE46434602D306D14D4504D2013899
:1003F400B9EB020E68EB0403002EA7D0B5EB0E0296
:1004040061EB030101FA0CFC22FA07F3F9404CEA10
:100414000303C6E9003199E74046C5E74346D9E7F7
:100424002DE9F04389B000240294039404940594C4
:1004340006940DF11E03049302230593022C22D883
:1004440004EB84035B4A52F8230006F06CFE50B1BF
:1004540004EB8400574B03EB800005F0C4F800283C
:100464000BDB0134EAE7142304FB03F3514AD358AA
:100474001968514805F00DF909E0024621464F4834
:1004840005F007F903E04E4806F04DFE10B909B037
:10049400BDE8F0834A4806F046FE0028F7D04848F5
:1004A40006F041FE0028F2D04FF4D011454805F083
:1004B40069F80028EBDB4FF4D011434805F062F8EB
:1004C4000028E4DB4FF48031404805F05BF8002855
:1004D400DDDB002461E03E4805F0DBF814E0BDF804
:1004E4001E30019301993B4805F0D3F804EB8400D6
:1004F40001A9304B03EB800005F095F8002837DBA9
:100504000199354805F0C5F80134022C34D8294B3B
:1005140004EB840203EB820853F8225098F8049009
:100524004A4629682D4805F0B4F898F805305BB1BF
:10053400012202FA09F2039298F810208DF818208B
:1005440098F811308DF81930AB685B6802A9284619
:100554009847011EBFDB04EB8402164B03EB8203B6
:100564009B7A13F0200FBAD0BDF91E300193B9E77E
:100574001B4805F08EF8C7E7124805F02AF8002852
:1005840085DB2EB1104805F024F80028FFF67FAF74
:100594004FF47A7005F065F83C461721084805F0D9
:1005A40008F80646671C21460E4805F072F8002438
:1005B400ABE700BF507D0000987C0000BC7C0000CD
:1005C400A47900009C7D0000947D00008C7D0000D7
:1005D400087D0000207D0000447D0000F47C0000C4
:1005E400247D0000E07C000008B5024B1B6898479E
:1005F40008BD00BFB0000020014B1860704700BF69
:10060400B000002000B583B002460B4600210091E3
:10061400024800F01DF903B05DF804FBED0500008D
:100624002DE9F04383B0044608461546238B13F0A6
:10063400080F05D103F0070600230093019355E04A
:10064400012909D043F02003238385F31188BFF3E4
:100654006F8F03B0BDE8F08343F010032383F4E706
:10066400204605F058F843E0D4F814904A46694609
:10067400204605F069F84FF00008238B03F00707C4
:10068400B74269D0A268002A66D0012243F0080369
:10069400238385F31188BFF36F8F002A64D1009BF5
:1006A4002BB14B463A466946204605F0C6F8B8F1E8
:1006B400000F02D034492046C0474FF02003EFF327
:1006C400118583F31288BFF36F8F238B23F0080304
:1006D4002383238B13F0100F4CD023F010032383B8
:1006E4000120268B06F007060028AED00228B7D0DA
:1006F4000028AAD0013804282AD801A353F820F0EE
:100704006D06000055070000190700002D070000C2
:10071400410700002369D3F800800621204604F035
:10072400D0FF4FF00009A8E72369D3F8048004211F
:10073400204604F0C6FF4FF000099EE72369D3F872
:1007440008800521204604F0BCFF4FF0000994E71F
:100754004FF00008C14690E7009A0AB1002295E7DD
:10076400B8F1000F92D1B4E74A463946204604F066
:10077400B0FF94E713F0200F04D023F02003238369
:100784000220AEE70020ACE76D580000844608461E
:10079400012226E09CF8003043F004038CF800307A
:1007A400F2B101301CE09CF8003043F008038CF8EF
:1007B4000030F5E79CF8003043F010038CF800306B
:1007C400EEE79CF8003043F020038CF80030E7E7B4
:1007D4009CF8003043F040038CF80030E0E700223E
:1007E40042B30378203B102BF9D801A151F823F030
:1007F400B9070000E3070000E3070000C707000093
:10080400E3070000E3070000E3070000E30700003C
:10081400E3070000E3070000E3070000AB07000064
:10082400E307000099070000E3070000E307000066
:10083400D50700009CF8003003F04403442B00D09B
:1008440070479CF800306FF386138CF80030F7E79C
:100854002DE9F04F91B006460D46914603930024CE
:1008640099F80000002800F0B982252808D009F181
:1008740001092946B0470028C0F2B1820134EFE7EC
:100884000023049305930693079308930993494619
:1008940006A805F019FA02909DF8193013F0010F1B
:1008A40000F09780039B1A1D03921F68002FC0F26B
:1008B40088809DF8193013F0040F00F09C80039B8E
:1008C4001A1D0392D3F800A0BAF1000FC0F28A8077
:1008D4000023079308939DF81A3003F007039DF84B
:1008E4001910C1F3C301012B00F08E80022B00F01C
:1008F400D380042B00F02481032B00F03B819DF86E
:10090400188018F0030B40F03B819DF81B30253B09
:10091400532B00F2CA81DFE813F04001C801C8017B
:10092400C801C801C801C801C801C801C801C8017B
:10093400C801C801C801C801C801C801C801C8016B
:10094400C801C801C801C801C801C801C801C8015B
:10095400C801C801C801C801C801C801C801C8014B
:10096400C801C801C801C801C801C801C801C8013B
:10097400C801C801C801C801C801C801C801C8012B
:100984008101C801C801C801C801C801C801C80162
:10099400C801C801C8015E016701C801C801C801D6
:1009A400C8016701C801C801C801C801BD018101AE
:1009B400A101C801C8014D01C8018101C801C801D4
:1009C40081019DF8183043F004038DF818307F42FC
:1009D4006FE79DF91830002B02DB4FF0FF3768E713
:1009E400079F66E79DF819306FF341038DF81930BE
:1009F4004FF0FF3A6CE713F0020F02D0DDF820A0AD
:100A040066E74FF0FF3A63E7CB1E042B04D8DFE818
:100A140003F00B1D29353500039B1A1D03921B6837
:100A2400DA170493059206E0039B1A1D03921B68D0
:100A3400DA1704930592012928D002297FF45FAFC5
:100A4400BDF91030DA170493059258E7039B073376
:100A540023F0070303F108020392D3E90023CDE94D
:100A64000423E8E7039B073323F0070303F1080299
:100A74000392D3E90023CDE90423DCE7039B1A1D89
:100A840003921B68DA1704930592D4E79DF910309A
:100A9400DA170493059232E7CB1E042B04D8DFE85F
:100AA40003F00B1F35414100039B1A1D03921B6881
:100AB4000493002305931EE09DF81B30632B07D09D
:100AC400039B1A1D03921B6804930023059312E0F1
:100AD400039B1A1D03921B680493002305930AE0E9
:100AE400039B073323F0070303F108020392D3E9BE
:100AF4000023CDE9042301291CD002297FF4FFAE91
:100B0400BDF81030049300230593F8E6039B0733E4
:100B140023F0070303F108020392D3E90023CDE98C
:100B24000423E8E7039B1A1D03921B680493002324
:100B34000593E0E79DF81030049300230593DEE667
:100B440008290BD0039B073323F0070303F10802A2
:100B54000392D3E90023CDE90423D0E6039B0733B2
:100B640023F0070303F108020392D3E90023CDE93C
:100B74000423C4E6039B1A1D03921B680493BEE678
:100B8400029F3B464A462946304605F043F9002871
:100B9400C0F225810444B94662E629462520B047BF
:100BA4000028C0F21C810134D8460DF13E0A4FF0F2
:100BB40000097FE0DDF81090BAF1000F07DB514621
:100BC400484605F067FA09EB000AD84672E0484641
:100BD40005F057FAF7E7049B8DF82830D8460DF155
:100BE400290A0DF1280965E018F0080F05D118F05D
:100BF400100804D04FF0200801E04FF02B08049AAD
:100C0400059B002B02DB0492059308E0524263EB40
:100C14004303049205934FF02D0800E0D8460DF1EC
:100C24003E0300930AAB06AADDE9040105F083F84C
:100C34008146BAF1000F6CDB0DF13E03A3EB09030F
:100C44009DF818206FF386128DF818209A4563D901
:100C5400AAEB030307930DF13E0A2BE0049828B98D
:100C6400D846DFF880A1AAF1050923E00DF13E037F
:100C740000930AAB06AA002105F05DF881469DF8B1
:100C84001A3043F010038DF81A3078238DF81B3096
:100C9400D846CEE72246049906A805F09CF8D84623
:100CA4000DF13E0A4FF0000904E0D8460DF13E0A6A
:100CB4004FF00009B9F1000F00F08D80AAEB090391
:100CC400B8F1000F00D001339DF81A2012F0100F74
:100CD40025D0023307990B4412F0400F01D0089A33
:100CE4001344002F31DDFF1A9DF8183013F0040F60
:100CF4002BD113F0400F17D0B8F1000F17D02946AD
:100D04004046B04700286ADB0134D8464FF0300B28
:100D14000FE00DF13E0ACDE70DF13E0ACAE712F0ED
:100D2400080FD7D00133D5E74FF0200B01E04FF087
:100D3400300B3B465F1E002B07DD29465846B04763
:100D440000284CDB01343B46F4E7B8F1000F05D032
:100D540029464046B047002841DB01349DF81A304B
:100D6400C3F30012C3F3C0031A4305D0294630204D
:100D7400B047002833DB01349DF81A3013F0100F0C
:100D840006D029469DF81B00B047002827DB013414
:100D9400079B03F1FF38002B07DD29463020B047BD
:100DA40000281CDB01344346F3E753464A462946F0
:100DB400304605F02FF8002811DB0444002F07DD2E
:100DC40029462020B047002809DB0134013FF5E71C
:100DD400DDF8089044E5DDF8089041E5204611B0BF
:100DE400BDE8F08FA97D000008B54FF02002EFF3B5
:100DF400118382F31288BFF36F8F05F0B2F80348B2
:100E040004F047FC00F0C0FAFCE700BFAC7D000032
:100E140068B108B5064A074B1B680749A1FB0313D1
:100E24009B0C00FB03F042F00103984708BD704798
:100E3400907C0000F800002083DE1B434FF0200369
:100E4400EFF3118C83F31288BFF36F8F0121124BE0
:100E5400C3F80015114A0223C2F8D0361048D0F85E
:100E6400003223F0E04343F04053C0F80032D0F89E
:100E7400043223F0E04343F04053C0F80432C2F894
:100E84000417C2F80419C2F8001B8CF31188BFF3CD
:100E94006F8F0020704700BF0010005000400050CA
:100EA40000258450062800D0704708B5014804F096
:100EB400D0FF00BF0040005002F09CB870B505465A
:100EC4004FF02003EFF3118683F31288BFF36F8F83
:100ED4000E4B1C680DE0A2683AB10D4B1B7D03EB71
:100EE40043030C4911F8230090472346246804B1B6
:100EF40023B12CB1002DEED06268EDE71C46F8E773
:100F040086F31188BFF36F8F70BD00BFC804002043
:100F1400E80A0020BC04002008B5064B23B1417840
:100F2400007804F09DFF08BD002383F31188BFF30C
:100F34006F8FF8E7655E000070B50E4B1C7D21468F
:100F44000D4804F093FF00B970BD650004EB440044
:100F54000A4E06EB8000FFF7DFFF0020FFF7AEFF2D
:100F64002B19990006EB8303002272505A609A6091
:100F7400EAE700BFE80A0020D0040020BC040020F7
:100F8400F8B50546384B1C7D4FF02003EFF311866E
:100F940083F31288BFF36F8F04EB4402334B13F8CF
:100FA4002230002B39D0324B03EB820C2F4F4FEA07
:100FB400820E07EB820393E807008CE80700002306
:100FC40007F80E3086F31188BFF36F8F04EB4403E8
:100FD400274A12F82330002B44D0B5F1FF3F2BD120
:100FE40003F004FA0120FFF769FF2146214804F0C9
:100FF40055FF214B5BB11E4A04EB440302EB830310
:1010040004EB4404597812F82400FFF74BFFFFF770
:1010140093FF03F0EDFB0120F8BD0146204600F0EC
:1010240031F80028CED004EB4401114B03EB8103CB
:1010340007C883E80700C5E704EB44020C4B03EB45
:1010440082039868410CC0030C4BC0180C4A4FF043
:10105400000341F10001FFF77BF80121281A06F093
:101064001AFBBDE70020D7E7E80A0020B0040020FF
:10107400BC040020D0040020A90E00003F420F0051
:1010840040420F002DE9F04182B00E4601A900F064
:1010940045F8441E24B207E0B6F1FF3F33D0804444
:1010A400B04530D9013C24B2002C2BDB019B04EB6E
:1010B400440203EB8205697813F8220004F0FDFE74
:1010C4000028EFD16868410CC003114FC019114AC0
:1010D4004FF0000341F10001FFF73AF88046AB6896
:1010E400590CDB03D8190B4A4FF0000341F10001FE
:1010F400FFF72EF8084B1B68B3F1FF3FCCD08342B7
:10110400CAD8CFE70025284602B0BDE8F08100BF69
:101114003F420F0040420F00B400002008B9024BC8
:101124000B600020704700BFD87D000008B502485E
:1011340004F0BEF808BD00BFD87D0000B0F5680F0C
:1011440017D00CD840F6BA63984214D0B0F5683F73
:1011540013D03A2801D00120704700207047094B72
:1011640098420CD0084B984201D0012070470020CF
:10117400704700207047002070470020704700200F
:10118400704700BF3A00003A2C5F5CA928B308B549
:101194004368B3F5683F0AD0B3F5680F14D0124919
:1011A4008B421FD0006803F001F8002014E00368AC
:1011B4000022D3E8EF1F012903D1C3E8E02F002860
:1011C400F7D10DD1104607E003681B7803F580734F
:1011D4000020064A42F8230008BD6FF4E04070473F
:1011E4000348F9E70348F7E72C5F5CA900000350C4
:1011F400E98FFFFFEA8FFFFF88B308B54368B3F5B3
:10120400683F0FD0B3F5680F19D016498B4224D02C
:1012140000684FF0FF324FF0FF3302F043FF68B134
:1012240011480BE003680122D3E8EF1F002903D122
:10123400C3E8E02F0028F7D10BD1002008BD0368D4
:101244001B7803F58073094A52F823301BB9002038
:10125400F4E70548F2E70448F0E70548EEE76FF4E1
:10126400E04070472C5F5CA9E98FFFFF000003504A
:10127400EA8FFFFF10B50446A8B16368B3F5683F71
:1012840010D0B3F5680F0DD00C4A93420AD013F472
:10129400686F0DD021460A4805F09CFF00232360A7
:1012A400064B636010BD074B5B6807489847E4E74B
:1012B40014220021206804F026FFF1E72C5F5CA9CA
:1012C400D409002084010020E07D000010B504460C
:1012D40068B36068B0F5683F28D0B0F5680F25D0D2
:1012E400174B984228D0FFF729FFC0B14FF0FF32C7
:1012F4004FF0FF332146134802F094FD08B92368E8
:101304001BB9114B5B6811489847142200212068CF
:1013140004F0F9FE002363604FF46863636020689F
:1013240005F0E6FF636843F03A03636010BD064BC3
:101334005B6807489847CCE72368002BD3D1D5E7EF
:101344002C5F5CA9D409002084010020087E0000E1
:10135400E07D000008B5402314220449044805F048
:101364002BFF0449044804F015F808BDD4040020F8
:10137400D4090020387E00004C7E00000149102270
:101384000A60704710ED00E072B6404080F31188A7
:10139400BFF36F8FBFF34F8F30BF62B6BFF36F8F52
:1013A400704700BF72B6494081F3118820BF80F3B3
:1013B400118862B6704700BF002807DB00F01F02E7
:1013C400400901239340024A42F82030704700BF8D
:1013D40000E100E0002808DB4901C9B200F16040E7
:1013E40000F5614080F80013704700F00F004901D8
:1013F400C9B2014B1954704714ED00E04209054B82
:1014040053F8222000F01F00012303FA00F01040DB
:10141400704700BF00E100E030BFFFF7FDBF00BF31
:1014240008B50B4B0B4A22F07F029A60BFF34F8F33
:10143400BFF36F8FD3F8882022F47002C3F888209A
:1014440002F03CFC03F040FB00F0F8F902F092FCDF
:1014540000ED00E0000000000A4A9368C3F8AC0005
:1014640009490968C3F8B01008494B6843F0805330
:101474004B60002383F31188BFF36F8F9368D3F815
:10148400B0007047E80A0020E87F000000ED00E0AB
:1014940014498A684FF030001044EFF3098C80E857
:1014A400F01F202080F31288BFF36F8F0E4F4FF090
:1014B4000066CA698A603E60D2F8AC000023C2F8B4
:1014C400AC3080F3118802F1300090E8F01F8CF307
:1014D400098802F1000004B504F016FDBDE80440DB
:1014E40070470000E80A002004ED00E01EF0040F3D
:1014F4000CBFEFF30880EFF30980816911F8021C37
:101504000229FFD001B504F0E2FC01BD10B4A2F140
:1015140020040E4942F8081C21F0010142F8081C7D
:1015240042F8203C019B42F81C3C029B42F8183CC8
:10153400039B42F8143C4FF0807342F8043C04656A
:101544000023C0F8AC3010BC704700BFB356000095
:10155400094B9860D0F89C3083F30B88104681F3D4
:101564000988002163B681F31188BFF36F8F0022CD
:10157400002304F09CF800BFE80A002001B572B60D
:101584000B4A906900281EBF0021916105F094FE6A
:1015940062B6EFF30580A0F110004FEAC0000549E0
:1015A400014409C99847BDE80140034908470000C0
:1015B400E80A0020EC790000C1150000044B99688A
:1015C400D869884203D003494FF080520A607047BB
:1015D400E80A002004ED00E010B51446184B9A6A9E
:1015E4009A6A9B6A13F0020F0BD0154B5A6B9B6AD5
:1015F40013F0800F05D021B1114A936A23F08003C0
:1016040093620F4B9A6A9A6A9B6A13F0100F01D186
:101614000B4B9B6A0A4B9B6A13F0200F04D0084AB9
:10162400536A23F400535362054A936A43F0FF0359
:101634009362012104F06DFC2070002010BD00BFF6
:1016440000ED00E010B51446124B9A6A9A6A9B6A40
:1016540013F4007F0BD00F4B9A6B9B6A13F4004F6B
:1016640005D021B10B4A936A23F400439362094BDA
:101674009A6A9B6A13F4807F01D1064B9B6A054AE0
:10168400936A43F47F439362012104F042FC207087
:10169400002010BD00ED00E00A4B9A6A9A6A986A2D
:1016A40010F480100BD1074B9A6A9A6A9A6A9A6A64
:1016B4009A6A6FEA02426FEA12429A627047022003
:1016C400F1E700BF00ED00E081690D4B5A6942F477
:1016D40080725A61BFF34F8FBFF36F8F31F8021CD2
:1016E4005A6922F480725A61BFF34F8FBFF36F8F30
:1016F4004DF60273994201D00020704701207047D3
:1017040000ED00E038B5054600230B701A4BD86A8B
:1017140010F002002DD10C46DB6A002B2ADB164B9D
:10172400D86A10F0804025D02846FFF7CDFF08B1D5
:1017340028681FE0104B9B6A13F0FF0F0DD10E4B6E
:10174400986A10F47F400ED10B4B9B6AB3F5803F2F
:1017540010D32846FFF7A0FF0CE0224601212846BB
:10176400FFF73AFF06E0224601212846FFF76AFF09
:1017740000E0002038BD00BF00ED00E070B58AB085
:101784000C46224B5968C1F30801002383F31188E6
:10179400BFF36F8F02F07F43B3F17F4F15D102F097
:1017A4000C03082B14D012F0080F0BD000260DF1F7
:1017B4002702204604F0B2FB05469DF8273053B1BA
:1017C4000AB070BD04460126F1E700263446EEE770
:1017D40000263446EBE72022214601A804F064FCED
:1017E4004EB1089BC3F308025AB96FEA53236FEA58
:1017F4004323089305E0089B23F4FF7323F00103BC
:10180400089301A9284604F05EFBD9E700ED00E047
:10181400044B5A6942F010025A615A6942F48062D8
:101824005A61704700ED00E0EFF30880EFF309819F
:1018340001B57246FFF7A2FF01BD00BF002207E019
:1018440003F1604303F56143202183F8001301325F
:10185400442A09DC53B2002BF2DA03F00F030349E4
:10186400194420230B76F2E7704700BFFCEC00E03C
:10187400002015490870002080F31488BFF36F8F8F
:10188400002080F30A8880F30B88FFF715FB002003
:101894000E490860BFF34F8F0D4880F3088800F0AD
:1018A40041F8202080F311880A484FF40061401861
:1018B40080F30988EFF314800221084380F314882D
:1018C400BFF36F8FFFF7ACFD070D002094ED00E030
:1018D400481A0020080D0020BFF34F8F0549CA683D
:1018E40002F4E062044B1343CB60BFF34F8F00BF9D
:1018F400FDE700BF00ED00E00400FA05084BD3F853
:101904009000C0F30720002306E0054AC2F898308F
:101914000021C2F8A01001338342F6DB704700BFF8
:1019240000ED00E010B572B6002484F31388FFF7CD
:10193400E5FF234608E003F120010E4A4FF0FF3093
:1019440042F821000133DBB20F2BF4D9002308E065
:1019540003F16001074A4FF0FF3042F821000133E0
:10196400DBB20F2BF4D962B6BFF34F8FBFF36F8F87
:1019740010BD00BF00E100E008B50A4B9B6883423C
:1019840002D003F055F808BDEFF30583002BF8D01F
:10199400054B5A6842F080525A605A6A22F4004257
:1019A4005A62EEE7E80A002000ED00E010B584B0CA
:1019B4000A4C23460A4A01210A4804F040FB00234A
:1019C400019302930393084B0193E41A02940121B7
:1019D40001A804F038FB04B010BD00BF00000720CC
:1019E400000000205C7E000040020020024B034AFD
:1019F400C3F8C020704700BF00ED00E0AAFF440018
:101A0400034BC3F89800C3F89C10C3F8A020704798
:101A140000ED00E00E4BC3F89800C3F89800D3F82B
:101A24009C000A7A60F304020A72D3F8A020C2F37D
:101A34004202087A62F347100872D3F89C2022F01D
:101A44001F020A60D3F8A03023F01F03CB60704755
:101A540000ED00E02DE9F04F87B08146009101933D
:101A64001446002734E0D84565D12946C0B204F0B5
:101A7400B6FA2CE0584AC2F89860D2F89C3003F0C9
:101A84001F0321F01F010B43C2F89C302946E0B22A
:101A940004F0A5FA044610F1160F00F09680013404
:101AA40015E0013B4C49C1F89860D1F8A02002F040
:101AB4001F0223F01F031343C1F8A0302946E0B2EC
:101AC40004F08DFA044610F1160F7ED0013401376C
:101AD400009B9F4279DA07EB47054FEA850A09EB39
:101AE40085056E68002EF2D0019B23B1284604F0D0
:101AF40059FA002865D0314659F80A0004F08EFAE4
:101B0400064610F1160F5FD0A04262DA324BC3F8DA
:101B14009800D3F89C2022F01F02C3F89800D3F851
:101B2400A03043F01F0859F80A306968194401F1DC
:101B3400FF3B9A4297D09A429CD0D845B1D0013B02
:101B44002549C1F89860D1F8A02002F01F0223F0C3
:101B54001F031343C1F8A0302946E0B204F03FFA52
:101B6400044610F1160F30D001301B4BC3F89860B7
:101B7400D3F89C109DF8102061F304028DF8102016
:101B8400D3F8A030C3F34203D2B263F347128DF803
:101B9400102059F80A306A681344029323F01F0393
:101BA400A8EB0B084344013B23F01F03059302A950
:101BB400C0B204F009FA044610F1160F05D001343E
:101BC40085E76FF0150400E00446204607B0BDE841
:101BD400F08F6FF01504F8E700ED00E010B5034C4A
:101BE40001232278FFF736FF207010BD040D00207A
:101BF40070B505460E46002400E00134A6421EDD01
:101C040004EB44039A0005EB830359680029F4D0DC
:101C1400A85804F003FA04EB84030B4A42F82300A7
:101C240010F1160F0CD0094B1B78984209DA04EB1B
:101C3400840302EB83010431FFF7ECFEDDE70020AF
:101C440070BD6FF01500FBE7F0090020040D0020C3
:101C5400044B0522C3F89420BFF34F8FBFF36F8F5B
:101C6400704700BF00ED00E0BFF35F8F024B00221E
:101C7400C3F89420704700BF00ED00E038B50E4B68
:101C84001D68082D15D8FFF7EFFFFFF7AFFE0024FE
:101C940007E0094B596801EB0411204604F06EF982
:101CA4000134A542F5D8054B1D70FFF7D1FF002084
:101CB40038BD4FF0FF30FBE7687E0000040D0020C4
:101CC400014B1860704700BFD8000020132810D8BB
:101CD4000C4B13F810307BB10A4A02EB40025278E5
:101CE4006AB1086800FB03F393FBF2F30B60002076
:101CF40070476FF0150070476FF0150070476FF074
:101D040015007047A07E000070B582B000230093D8
:101D1400CDF803300D7905F01F05072D00F28680FC
:101D24000C460B780B2B00F28480DFE803F00906E5
:101D34001115821982821D21822501238DF802301A
:101D44006378032B1CD0042B1DD06FF015005BE0CF
:101D540002238DF80230F3E703238DF80230EFE716
:101D640004238DF80230EBE705238DF80230E7E712
:101D740006238DF80230E3E707238DF80230DFE70E
:101D840001238DF803306388002B3FD044F22802EE
:101D9400934251D844F20302934250D3A3F58043B3
:101DA400033B252B4ED8DFE803F0164D134D4D4D64
:101DB4004D314D4D4D4D354D4D4D4D394D4D4D4D97
:101DC4004D4D4D4D4D4D4D4D4D4D4D4D4D4D4D3D4F
:101DD40001238DF804302379C3F340138DF80530C3
:101DE4001A4E6A462946304604F0AEF9A17905F147
:101DF40051031A0106EB031359600020B0506279B5
:101E0400134B2B4483F8A82002B070BD02238DF835
:101E14000430E0E703238DF80430DCE704238DF875
:101E24000430D8E705238DF80430D4E76FF01500AB
:101E3400EAE76FF01500E7E76FF01500E4E76FF0ED
:101E44001500E1E76FF01500DEE700BF00E0005089
:101E540000000020074B0122C3F8002590F88E30C3
:101E640013B1044BDA607047024B01221A605A60C6
:101E7400704700BF00E0005049B9054BD3F82C2649
:101E8400D3F8341689B202EB4102C3F82C2670470A
:101E940000E00050037C083B062B11D8DFE803F078
:101EA40004100E1006100C00002200E00222064B63
:101EB400C3F8F025002070470322F8E70122F6E773
:101EC4006FF01500704700BF00E00050012901D9F0
:101ED400437C73B9437C082B0ED8DFE803F0050577
:101EE4000505050505050500054AC2F8F435002079
:101EF40070476FF0150070476FF01500704700BF12
:101F040000E0005010B582B000F10804D0F8900051
:101F1400410CC003084BC018084A4FF0000341F1BC
:101F24000001FEF715F900900191002200232046DC
:101F340002F0A6FF02B010BD3F420F0040420F0066
:101F4400F8B54E68731EFE2B55D80D4600231C466B
:101F540009E003F1510212012A490020885001339B
:101F6400DBB2072B22D81A4626FA03F111F0010F2F
:101F7400EFD02549194491F8A870002F3ED0697C10
:101F8400003918BF0121DFF87CC00CEB031EDEF81A
:101F9400180520F0807040EA0160CEF8180551322F
:101FA40012014CF802700134E4B2D8E72846FFF776
:101FB40071FF034608B11846F8BD21462846FFF7CD
:101FC40085FF03460028F6D12146284604F0F1F89F
:101FD40003460028EFD1AA680A4BC3F82C26C3F89D
:101FE4003046094C2946204604F025F9204604F0E1
:101FF40012F90346DFE76FF01503DCE76FF0150312
:10200400D9E700BF00E000500000002070B504468E
:102014000D46084E0121304604F0EEF829462046CC
:10202400FFF78EFF04460146304604F02FF92046A0
:1020340070BD00BF0000002070B504460D46084E78
:1020440000221146304604F0D7F829462046FFF70F
:1020540077FF04460146304604F018F9204670BD67
:102064000000002010B50D4B0024C3F80441D3F840
:102074000421C3F81041D3F810211222C3F8042319
:102084000E2003F02AFF224601210E2003F02AFF2E
:10209400034804F004F9204610BD00BF00E00050DE
:1020A4000000002008B5114BD3F8043173B90F4B6D
:1020B400D3F810314BB10D4B0022C3F81021D3F8E3
:1020C400102101229A601A605A6008BD074B002251
:1020D400C3F80421D3F8041101219960C3F8002541
:1020E4000146034804F0F8F8EFE700BF00E00050B1
:1020F4000000002000487047900A0020034BC01ADB
:102104008010034B03FB00F0704700BF180A002047
:10211400B76DDBB638B505460C46FFF7EFFF014651
:102124004022034804F0D1F901462846A04738BDAF
:102134007479000030B583B005460C46FFF7DEFF26
:102144000146402300932346054A064804F0D7F984
:10215400011E01DB03B030BD2846A047FAE700BFEB
:102164004B6500007479000008B5052815D8DFE830
:1021740000F0031A1414151000210D4804F030F96E
:10218400836813F0070F08D10021094804F08BF984
:1021940003E00221064804F086F908BD032104483F
:1021A40004F081F9F9E70121014804F07CF9F4E72E
:1021B4007479000010B582B04FF02003EFF311845E
:1021C40083F31288BFF36F8F144A136843F002013C
:1021D400116013F0010F09D1002384F31188BFF3B8
:1021E4006F8FB3B904F0B7F902B010BD0DF1070257
:1021F40001214FF0502004F0B9F89DF80730012B6D
:1022040001D00023E9E7FFF775FF04F039F9012352
:10221400E3E70021024804F046F9E5E7B80A0020A4
:102224007479000008B5084BD3E8EF2F22F00201BF
:10223400C3E8E01F0028F7D112F0010F00D008BD59
:1022440004F09DF9FBE700BFB80A002070B582B026
:102254000546012807D14FF05023D3F81C3403F06E
:102264000303022B37D004F0F0FF044610B92B4BC4
:102274001B787BB94FF02003EFF3118683F31288A8
:10228400BFF36F8F012494B94FF050230222C3F897
:1022940008230CE00026F6E7FCB13046FFF782F88D
:1022A4004FF05023D3F81835DBB2012B19D00DF1C0
:1022B400070200214FF0502004F058F80028EBD01A
:1022C4009DF80730022B01D0012DE5D104B386F32C
:1022D4001188BFF36F8F02B070BD012004F063F961
:1022E400DEE74FF05023D3F80431002BDFD04FF05A
:1022F40050230022C3F80421D3F804210222C3F896
:102304001825074A2021C2F8801101229A60CEE7DD
:102314004FF050230222C3F80423DCE7070D00200A
:1023240000E100E000B587B0CDF800D0CDF804D0CE
:10233400002302930123039304AB049305936B4698
:10234400064A04F0F8F8002805DB4FF48042002325
:10235400684601F091FF07B05DF804FBD765000003
:1023640070B5064600220121052003F0BBFD11488B
:1023740000F032FF104B984219D104F0D4FD002430
:10238400032C12D82146304604F02AF8054621468B
:10239400304604F030F8094903F074FA002805DBEC
:1023A4000123AB601C44E4B2EAE7002070BD6FF087
:1023B4000400FBE76D2100000000AD0BE47E00008B
:1023C40010B504460E4B0121D3E8EF2FC3E8E01FFC
:1023D4000028F9D11AB1631E012B0DD910BD09488B
:1023E40004F009F8084900234B608B60CB6001239B
:1023F4008B6003F064FAEEE72046FFF727FFEDE772
:10240400140A002074790000040A002010B5044660
:102414000A2806D0E1B2064883685B6898472046DC
:1024240010BD034883685B680D219847F2E700BF3D
:10243400BC79000010B5044C2046FFF741FC20464F
:10244400FEF7DAF810BD00BF1124000008B50548F6
:1024540004F069FE18B1FFF7EDFF002008BD6FF02E
:102464001200FBE7BC79000028B1012801D1034820
:102474007047002070470248704700BF8C79000005
:10248400A4790000F0B585B00E46194643681B7B5D
:1024940006F01F0545EA4315B2F5001F22D0074692
:1024A4001446002301930293104604F06CF98DF84E
:1024B40004007B689968F14011F0010F02D1B4F176
:1024C400A07F14D0002301AA1946284601F070F910
:1024D4001A4B98422FD10121284601F0CDFA002051
:1024E40005B0F0BD284601F0F9FA0020F8E705F040
:1024F4001F036A09012A12D0114A803352F823308B
:1025040013F0010FDED10DF10F01284601F058FA46
:102514000C4B984205D00DF10F030293D2E70A4AFF
:10252400EBE70DF10F0001F09FFA044B9842F2D053
:102534006FF00B00D4E76FF01500D1E70000AD0B8E
:10254400002584500400AD0B002884502DE9F0418F
:1025540086B00E461446D0F8048098F80C3001F08A
:102564001F0545EA43150DF11701284601F028FA25
:10257400074614F4403F39D00021039104910B46DF
:1025840003AA284601F014F9324B98425FD19F42C6
:102594003CD014F4003F47D00DF10301204604F071
:1025A4007FF8074648BB9DF803308DF8043014F4D7
:1025B400803F0CBF012300238DF80530204604F032
:1025C400B2F88DF8060014F4002F24D0D8F80420B3
:1025D4000123B3409360002201A9284601F07EF94B
:1025E4001C4B984209D06FF0150706E0284601F00D
:1025F40097FA184B9F4204D00027384606B0BDE82E
:10260400F0819DF8170001F027FAF5E79DF817000F
:1026140001F022FABDE714F4802FDCD0D8F80420AE
:102624000123B340D360D6E7204604F07CF88DF84C
:10263400080000231A4602A9284601F0B9F8054B00
:10264400984201D10027D8E76FF01507D5E76FF05E
:102654001507D2E70000AD0B08B501F0F3F908B196
:10266400002008BD01F0C4F9084B98420AD10021AA
:10267400074801F09FF9002205210D2003F032FCE8
:102684000020EEE76FF00400EBE700BF0000AD0BA5
:10269400C367000043681A68B1F5164F6FD03AD883
:1026A400B1F5165F6ED00AD9B1F5E14F75D024D9D2
:1026B40047F6122399422BD14FF4000313E0B1F5EE
:1026C400966F61D007D9B1F5166F63D0B1F5965FF7
:1026D40010D13C4B07E0B1F5967F58D0B1F5167F89
:1026E40005D14FF41C33C2F82435002070476FF035
:1026F400150070476FF015007047B1F5615F4ED05B
:10270400B1F5964F01D1304BEDE76FF015007047EE
:102714006FF015007047B1F5613F42D009D9B1F5AA
:10272400612F46D01FD9294B994248D14FF080538D
:10273400D9E7B1F5963F37D005D9B1F5E13F0FD1CF
:102744004FF0EB73CFE74DF6C02399422ED0B1F58D
:10275400614F02D14FF46B03C5E76FF0150070476A
:102764006FF0150070471A4B994225D0B1F5E12F4F
:1027740002D14FF0E863B6E76FF0150070474FF4ED
:102784001D03B0E7134BAEE74FF49E23ABE74FF4C2
:10279400A033A8E74FF41D23A5E70F4BA3E70F4B86
:1027A400A1E74FF06C739EE70D4B9CE74FF4650374
:1027B40099E74FF0706396E74FF0806393E76FF00B
:1027C4001500704700B0130000A04E0040420F00F7
:1027D40090D003000050270000C0750000F03A00BC
:1027E40000903A01F8B505460E46076904F02DFD40
:1027F40010B9124B1B7883B94FF02003EFF3118407
:1028040083F31288BFF36F8F284604F09BF840B916
:1028140084F31188BFF36F8FEEE7284604F0F7F8CE
:1028240004463B691E7001223969284604F0A4F865
:1028340084F31188BFF36F8FF8BD00BF070D00202C
:1028440038B505460C4601F1180000F03BFD0A4B73
:1028540098420ED1237E43F00043C5F8A031C5F859
:102864008C30227E01239340044AC2F804350020B0
:1028740038BD6FF00400FBE70000AD0B00700150A1
:1028840021F07F4100F5A870014B43F820107047F8
:102894000050015000F5A870014B53F82000704718
:1028A400005001504FF480338340024AC2F844334D
:1028B400704700BF005001504FF480338340024AF8
:1028C400C2F84833704700BF00500150014BD3F8A1
:1028D400040570470050015010B5012383406FEA8E
:1028E400030C0C4AD2E8EF1F01EA0C0EC2E8E4EF35
:1028F400002CF7D14FF4803282400748C0F80823F7
:10290400BFF35F8FBFF36F8F0B4214BF0120002012
:1029140010BD00BFD80A00200050015038B504464D
:1029240004F020F905464FF48033A340144AD2F84A
:102934000423134205D10024284604F01CF9204640
:1029440038BD0123A340DB430E4AD2E8EF1F01EA5E
:102954000300C2E8EC0FBCF1000FF6D149B904F151
:1029640050039B009BB203F1502303F580331B6893
:1029740023B1204604F0E7F80124DDE70024DBE777
:1029840000500150D40A002001B97047012383404C
:102994000D4AD2E8EFCF4CEA030CC2E8E1CF00299C
:1029A400F7D14FF480338340084AC2F80433084B0C
:1029B400D3E8AF3FC34013F0010FE6D0054B4FF40B
:1029C4000012C3F80021E0E7D80A002000500150AB
:1029D400D40A002000E100E02DE9F843074614463C
:1029E4001E461046194604F0BAF80546154B1A68F7
:1029F400A01A1C605E60A5F50013B3F5400F09D35F
:102A0400002402F04DF93846FFF744FFA8420ED0E7
:102A1400BDE8F8830C4B1B681A0A1B0615EB030868
:102A240042F10009094BC3E900890124E9E71CB11B
:102A34003846FFF737FFEBE74FF400013846FFF75E
:102A44001FFFF5E750020020DC0A00205802002096
:102A540038B50D4B1C68250A2406BFF35F8FFFF7BA
:102A640035FF0346001945F10001B3F5801F0AD272
:102A7400064BD3E90023904271EB030303D210F118
:102A8400807041F1000138BDDC0A002058020020AA
:102A9400F8B5064614461D461046194604F05FF87C
:102AA4000746FFF7D5FFA04271EB05031DD2201A9C
:102AB40065EB0101194B984271F100012BD2184BBF
:102AC40003EB0613D3E90223AB4208BFA24216D09C
:102AD4003946304604F054F8394604F030F8001909
:102AE40045F1000304461D4609E00123B3400D4AA5
:102AF400D2E8EF0F1843C2E8E10F0029F8D1084BE0
:102B0400320103EB0616C6E9024506999950079B64
:102B140073600020F8BD6FF01500FBE701000001B1
:102B240040020020D40A002030B583B000231D4A9F
:102B3400C2F80835002B24DD1A4C0225C4F80453CE
:102B4400194B4FF40012C3F88021002201211520F3
:102B540003F0C8F9152003F0C0F90123A360236032
:102B6400124A136000240194114B0093114A00236C
:102B7400204604F040F82846FFF722FC204603B024
:102B840030BD0D4A02EB03124FF0FF304FF0FF311E
:102B9400C2E902014FF480329A400249C1F8042389
:102BA4000133C7E70050015000E100E0D80A0020DB
:102BB400DD290000FFFF7F00400200202DE9F047DF
:102BC40082B00446FFF7AAFE10B902B0BDE8F08750
:102BD400FFF73EFF82460D4603F0C4FF0646134B43
:102BE40003EB0413D3E90289C24575EB09050BD243
:102BF4000025304603F0BFFF002DE6D00097424683
:102C04004B462046A847E0E7084A230102EB04119B
:102C1400D5584F680020D0504FF0FF324FF0FF33AB
:102C2400C1E902232046FFF747FEE2E74002002005
:102C340010B50E4BD3F8043313F0020F0DD00B4B29
:102C4400D3F804314BB1094B0022C3F80421D3F863
:102C54000431074A1368013313600024002C00DD9B
:102C640010BD2046FFF7AAFF0134F7E700500150DA
:102C7400DC0A002010B582B0B0F1FF3F06D0012875
:102C840006DDB0F5000F05DA441E04E00F48F8E74E
:102C9400002400E00D4CFFF7DBFE0D4B1A685B6867
:102CA400801AB0F5000F00D300242044411CB1F574
:102CB400000F00D3054900205218019005490091E6
:102CC40043F1000303F097FF02B010BDFFFF7F0044
:102CD40050020020DD29000008B5FFF7B9FE024BC1
:102CE4001B68C01A08BD00BF5002002030B400F0B9
:102CF4001F0C4009012818D00D4D0CF1800055F827
:102D0400204004F0E04C41EA420141EA83039DF88B
:102D1400082043EA02239DF80C2043EA024343EAD5
:102D24000C0345F8203030BC7047024DE5E700BF86
:102D3400002584500028845059B900F01F0140092F
:102D4400012804D0094A01238B40D3607047084A04
:102D5400F9E700F01F014009012804D0034A0123C8
:102D64008B4093607047024AF9E700BF0025845006
:102D7400002884502DE9F04F85B007468B469046D5
:102D8400002422E04FF0FF352CE0C8F80C55012652
:102D9400039631467F2D16D0B1F1FF3F40F00E81EE
:102DA40057F80A3013F4005F02D001260022039280
:102DB40000220192CDF80090C3F3C1133246039967
:102DC4002846FFF793FF0134E4B25C4580F0FA80B3
:102DD4004FEA840A57F82430C3F3432903F07F05EC
:102DE4007F2DCFD01B0C222B00F2EE8001A252F8D3
:102DF40023F000BF8F2D0000852E0000932E0000CD
:102E04009F2E0000AD2E0000BB2E0000C72E000038
:102E1400CD2F0000CD2F0000CD2F0000CD2F0000BE
:102E2400D52E0000E92E0000CD2F0000CD2F00008C
:102E3400CD2F0000CD2F0000CD2F0000CD2F00009E
:102E4400CD2F0000CD2F0000CD2F0000FD2E00005F
:102E54000F2F0000212F0000332F0000CD2F000082
:102E6400CD2F0000CD2F0000452F0000552F00006E
:102E7400612F0000712F0000812F0000912F0000AE
:102E8400C8F81455002603964FF0FF3182E7C8F8BE
:102E940008550126039631467CE7C8F810550026EC
:102EA40003964FF0FF3175E7C8F808550026012353
:102EB400039331466EE7C8F80C55012603960021AA
:102EC40068E7C8F81055002603964FF0FF3161E714
:102ED400C8F80855B9F1000F60D0002603964FF0EA
:102EE400FF3157E7C8F80C55B9F1000F5ED0002642
:102EF40003964FF0FF314DE7C8F8605557F80A10B4
:102F0400C1F380310126039644E7C8F8645557F8A5
:102F14000A10C1F38031012603963BE7C8F86855CF
:102F240057F80A10C1F380310126039632E7C8F836
:102F34006C5557F80A10C1F380310126039629E72E
:102F4400C8F824550126002303934FF0FF3121E7ED
:102F5400C8F828550126039631461BE7C8F83055B2
:102F64000126002303934FF0FF3113E7C8F83455CB
:102F74000126002303934FF0FF310BE7C8F83855BF
:102F84000126002303934FF0FF3103E7C8F83C55B3
:102F94000126002303934FF0FF31FBE64E46CDF8A4
:102FA4000C904FF0FF314FF00609F3E64E46CDF892
:102FB4000C904FF0FF314FF00609EBE62846FFF77F
:102FC400BBFEEDE6002001E06FF0850005B0BDE832
:102FD400F08F00BF4FF05023D3F8582502F00302BE
:102FE400024BD340024A1360704700BF0020A10780
:102FF400F800002008B503F0B7FE68B14E4BD3F8D3
:10300400203A4BB94C4B0D22C3F8202A0122C3F8B5
:103014001C290022C3F81C2900220BE002F16003E2
:103024004FF47F0151F83310DB0003F57F035B6835
:103034000B6001321F2A08D802F160034FF47F01AC
:1030440051F83330B3F1FF3FE8D103F065FE30B1FE
:10305400394B2922C3F80C270322C3F83C2703F079
:103064000FFE40B1354B364AC3F830254FF050239C
:103074000122C3F8582503F017FE18B1314B002282
:10308400C3F84C2503F028FE68B14FF05023D3F861
:10309400003413F0010F06D04FF050230022C3F880
:1030A4001421C3F8182103F02BFE60B14FF0502314
:1030B400D3F8003413F0010F05D04FF050236FF014
:1030C4000102C3F8002403F03BFE18B11A4B652239
:1030D400C3F80C2703F05CFE20B11A4BD3F820345C
:1030E400002B11DB184AD2F88C3043F44063C2F849
:1030F4008C30164A1168164BC3F84415D269C3F8CC
:103104004C25FFF767FF08BD4FF050230322C3F897
:10311400182501229A604FF05023D3F80431002B74
:10312400F9D04FF050230022C3F804210122DA60C1
:10313400C3F81825D6E700BF0040005000900350A4
:103144004400EFBE0020035000ED00E00080FF00CB
:103154000060005010B50468B4FA84F3C3F11F038F
:103164005FFA83FC002B12DB012202FA03F324EA48
:103174000303D0E8EF2FA24204D1C0E8EE3FBEF132
:10318400000FF6D1E7D181F800C0024810BD024813
:10319400FCE700BF0000AD0B0200AD0B0368CB40A1
:1031A40013F0010F11D100B5026801238B401343C2
:1031B400D0E8EFCF944504D1C0E8EE3FBEF1000F54
:1031C400F6D1F1D102485DF804FB0248704700BF14
:1031D4000000AD0B0400AD0B054B1B792BB9044B60
:1031E400186001221A71034870470348704700BFF2
:1031F400E00A00200000AD0B0C00AD0B08B54FF049
:103204005023D3F8003163B14FF050230020C3F8AA
:103214000001D3F800210122C3F80823284B1B68BE
:1032240098474FF05023D3F80431BBB14FF05023EB
:103234000022C3F80421D3F80421D3F8182402F09F
:103244000302D3F81834012A31D04FF0502302225C
:10325400C3F808231A4B1B68012098474FF05023EA
:10326400D3F8203173B14FF050230022C3F820214A
:10327400D3F820214FF48072C3F80823104B1B6845
:10328400042098474FF05023D3F8243173B14FF002
:1032940050230022C3F82421D3F824214FF40072D0
:1032A400C3F80823064B1B680520984708BD4FF058
:1032B40050230222C3F8182501229A60CEE700BFEA
:1032C400E00A002008B501460148FFF743FF08BDA6
:1032D400FC000020F0B51C46059F069E00F01F0C64
:1032E4004009012834D0274D0CF1800355F82330D0
:1032F40081B3012082B34FF0020E40EA0E0074B392
:103304004FF00C0E40EA0E0067B34FF4706E40EAC3
:103314000E0056B34FF4403E40EA0E0023EA00008C
:1033240031B30B7832B312785200134324B32278AA
:103334009200134317B33A781202134306B3327858
:103344001204134303430CF1800C45F82C30F0BDF8
:103354000D4DC9E70020CDE74FF0000ECDE74FF04B
:10336400000ECFE74FF0000ED1E74FF0000ED3E789
:103374000023D7E70022D8E70022DAE70022DCE7BF
:103384000022DEE7002584500028845000F01F024C
:10339400400901280AD00649803251F8223003F04E
:1033A400E04343F0020341F8223070470149F3E758
:1033B400002584500028845000B583B084468E468E
:1033C4000C4B93E8030002AB03E90300634609E0F6
:1033D40002A901EB830151F8081C086A42F8040BA6
:1033E400086201330CEB0E009842F1D803B05DF88B
:1033F40004FB00BF807C00000830034B33F810004E
:1034040000F00100704700BF000100200830034BAA
:1034140033F81000C0F34010704700BF00010020D3
:103424000830044B33F8100010F01C0018BF0120C2
:10343400704700BF000100200830034B33F8100030
:10344400C0F34000704700BF000100200830024B69
:1034540033F81000400B704700010020002204E004
:103464004FF0FF3383420FD001322F2A0AD802F1E2
:103474000803064931F8133013F4807FF0D0C3F306
:103484004323EFE70020704701207047000100202C
:10349400002313B14FF0FF307047074A52F833202E
:1034A400824201D00133F4E7034A02EBC3025268BB
:1034B4008A42F7D1184670470001002000F1080243
:1034C4000E4B33F81230C3F38203042B10D0052BB8
:1034D40010D000F01F024009012807D0084B1B69D7
:1034E400D34013F0010F07D003207047054BF6E7D4
:1034F400032070470220704702207047000100201B
:1035040000258450002884500830064B33F81000FE
:1035140010F4807F04D0C0F3432003EBC000704755
:10352400002070470001002070B504460D46FFF7E7
:10353400EBFF20B10668426829462046B047044B99
:103544009B6823B1024AD26829462046984770BD39
:103554000001002070B506460C461546084603F0E7
:10356400CAFD60B9022D26D00221304603F09BFD2E
:10357400032C24D0022D20D0032D25D070BD21464C
:103584003046FFF7D1FF06F01F037209012A10D05D
:103594000F4A803352F82330C3F301439D42EDD1E7
:1035A4000021304603F07FFD2946304603F07BFDC1
:1035B400E4E7084AEDE70321D7E7012CDCD12146F3
:1035C4003046FFF7B1FFD9E7022CD7D1F7E700BFA8
:1035D400002584500028845000F108020E4B33F873
:1035E400123013F4807F16D010B5C3F34324104671
:1035F40023F4F853084A22F810302046FFF72EFF30
:1036040000B110BD0448002340F834302146743022
:10361400FFF7C4FDF5E770470001002010B504462C
:10362400FFF7F4FE50B12046FFF710FF084B00F5FA
:10363400A270002243F8202043F820202046FFF700
:10364400CBFF0834034B002223F8142010BD00BF25
:1036540000D000500001002070B582B005460E462F
:103664001446FFF7B9FF26B321463046FFF710FF93
:10367400031E13DB104941F8336001EBC3025460AD
:1036840005F1080031F810205B029BB2134343F4A8
:10369400807321F81030094802B070BD0DF10701A4
:1036A4000748FFF757FD054B9842F5D19DF80730C1
:1036B400E0E70248F0E700BF000100200000AD0B86
:1036C4007401002070B582B06A4602210020FFF721
:1036D40073FE3EE0214E05F1800356F82320C2F329
:1036E4000142FFF737FF0123AB40336202AB03EB28
:1036F400840353F8080CF8B190FAA0F0B0FA80F003
:1037040000EB441000F10802154B33F81210C1F31A
:103714008201C50800F007061DF805200123B34007
:10372400DB435BB213400DF8053000F01F0543097D
:10373400012BCFD00B4ECEE70134012CD6D90A4B46
:103744000022C3F87C21D3F87C31684603F0D8FC0E
:1037540008B10024F1E702B070BD00BF0028845016
:10376400000100200025845000D0005038B50446E4
:1037740018E094FAA4F3B3FA83F301229A4024EAFA
:1037840002040A4A03F5A27352F82350C5F305252F
:1037940052F82300C0F3014003F0ABFC0146284675
:1037A400FFF7C2FE002CE4D138BD00BF00D00050AA
:1037B4002DE9F04184B0044615461E4609B30F4670
:1037C40003F081FC00283FD100238DF80E308DF8E2
:1037D4000F30019300933B460DF10F020DF10E01E2
:1037E4002046FFF777FD394A04F1080132F8113019
:1037F40023F002039BB222F8113043F0010322F8B4
:103804001130BDB12F78D5F804802046FFF714FE9F
:10381400E0B1B8F1000F53D12C4A04F1080132F899
:10382400113023F01C039BB222F8113043EA8703C2
:1038340022F81130002E47D0726831682046FFF715
:103844000BFF04B0BDE8F0812148FAE71F4A04F1F8
:10385400080132F8113023F02003DB04DB0C22F8DA
:103864001130B8F1000FD7D0032F2BD86B681D7817
:1038740047B9184B05F5A275002243F8252043F8F3
:103884002520C9E7384603F035FC0346114805F501
:10389400A27150F8212022F0030240F82120224690
:1038A400294603F0C8FB094A04F1080132F8113033
:1038B4006D03ADB22B4343F0200322F81130ABE784
:1038C4000348BEE70248BCE70348BAE7000100200A
:1038D4000400AD0B00D000500000AD0B70B584B0F7
:1038E4000446154629B30E4603F0FCFB20B12046DE
:1038F400FFF78CFD00283AD12046FFF791FD10B167
:103904007378012B33D001238DF80F3000230193FA
:103914000096B31C721C0DF10F012046FFF7DAFC70
:10392400204A04F1080132F8113043F0030322F86D
:10393400113095B3204603F0D5FB80BB2E781A4B8B
:1039440006F5A272002143F8221043F82210154A0A
:1039540004F1080132F8113023F02003DB04DB0CFE
:1039640022F811306B7823B9104804B070BD1048A8
:10397400FBE7AA780092224631460B4803F074FB19
:10398400084A083432F814307603B6B2334343F0AD
:10399400200322F814300548E7E70448E5E7044823
:1039A400E3E700BF0001002000D000500000AD0B91
:1039B4000400AD0B014B9860D960704700010020F2
:1039C40038B504460D46FFF721FD40B104F1080067
:1039D400044B33F810305B0B2B70034838BD03489D
:1039E400FCE700BF000100200000AD0B0400AD0B9C
:1039F4000F4B93F878300BB10E48704710B50E4C4E
:103A040060220021204602F07EFB0D2002F065FAC0
:103A14000A4B0022C3F87C21D3F87C214FF00042EA
:103A2400C3F80423012384F868306366044810BD96
:103A3400000100200500AD0B1001002000D0005053
:103A44000000AD0B034B93F87800003818BF012039
:103A5400704700BF0001002008B501460148FFF788
:103A64009DFB08BD7001002008B501460148FFF721
:103A740071FB08BD7001002038B504460D46FFF700
:103A8400C5FC00B3204603F02DFBE0B12046FFF750
:103A9400DDFC830003F580739BB203F1A04303F5BF
:103AA400504300221A601B680B4A00F5A27152F8B9
:103AB400213043F0010342F821305DB101238340FA
:103AC400C2F8043306E02046FFF7F8FC014620461E
:103AD40003F0E9FA38BD00BF00D0005010B5044629
:103AE400FFF794FCA0B1204603F0FCFA80B1204615
:103AF400FFF7ACFC01228240084BC3F8082300F511
:103B0400A27053F8202022F0030243F8202003E09F
:103B14000021204603F0C7FA10BD00BF00D00050BA
:103B240010B50446FFF768FC08B9064810BD2046E6
:103B3400FFF7D4FF2046FFF771FD2046FFF726FC70
:103B44000148F3E70400AD0B0000AD0B38B50120CC
:103B54004FF4807300210C4603E0400004339BB211
:103B64000131072914D803F1A04202F5504212682A
:103B7400002AF2D00C4AD2F804231042EDD003F10B
:103B8400A04202F550420025156012680443E4E7A0
:103B9400054BD3F87C311BB92046FFF7E7FD38BD50
:103BA400FFF790FDF8E700BF00D00050034B00E0A2
:103BB4001833034A9342FBD3704700BF7479000063
:103BC400EC79000070B50646114B53F8204009E02B
:103BD400404217E0EB681870EA68537843F0010339
:103BE40053700834731C0A4A52F82330A3420DD987
:103BF4006568236828469847002DF2D00028EBD04A
:103C04000028E5DBFF28E5DDFF20E3E770BD00BF0A
:103C1400FC7F000010B586B0B823114C03FB0044B0
:103C240000EB800C00EB40000E4B03EBC0030E4A8C
:103C34000592012204920F22039200220292019221
:103C440000930A4B4FF4A072094901EB8C112046F2
:103C540000F05CF9637B23F00403637306B010BDCA
:103C640060020020E80A0020EC7F00006D400000A4
:103C74000815002008B50A4B01221A700320FFF72B
:103C8400A1FF01F07FF90420FFF79CFF00F0A2F9E7
:103C9400FCF7C6FB034A137B23F00103137308BD2F
:103CA400070D00201803002008B50146014A024808
:103CB400FDF74EFC793C00001803002008B50348CA
:103CC400034A121A002103F058FA08BD40020020EA
:103CD400080D002010B50446FFF79CFFB8230A49DD
:103CE40003FB0411094A04EB440302EBC303D96048
:103CF4001C75074B03EBC42303F5006304EB440476
:103D040002EBC402536010BD60020020E80A0020E8
:103D1400080D002070B586B000F0BCFD104D114BAD
:103D2400DD61114B05930123049300240394029451
:103D3400019400940D4B4FF480620D49284600F025
:103D4400E5F806466B7B23F004036B73284603F007
:103D54004DFB2046FFF7BEFF304606B070BD00BFE6
:103D640018030020E80A0020F47F0000793C0000DA
:103D74004816002000B5AFB00020FFF723FF1D4B0D
:103D840003F5006282F3088883F30A881A4CE0235F
:103D940084F822300025E57725766576A57684F8C3
:103DA4002050636A43F4E023636284F82350FDF7F0
:103DB4002FFDFDF7E3FA4FF0FF33A362E362FDF753
:103DC4005DFFFDF7F3FD01248DF80D408DF80C40E7
:103DD400279528952A95094BC3F808D0FFF7E6FEE6
:103DE4002046FFF7EFFE0220FFF7ECFEFFF792FFFD
:103DF400FFF75AFF080D002000ED00E0E80A00205C
:103E040010B5064C002000E01C34054B9C4204D243
:103E1400204603F0BAF90028F6DA10BDEE010020BE
:103E2400EE01002030B583B00D464FF02001EFF3D2
:103E3400118C81F31288BFF36F8F6146446964B1BA
:103E44002C6023684361836901338361002081F31B
:103E54001188BFF36F8F03B030BD00F1080E53EA31
:103E6400020404D100232B606FF00B00EFE70092F3
:103E740001930246704600F007FC0028EBD1024B88
:103E84009B685B692B60E6E7E80A00204FF020039B
:103E9400EFF3118183F31288BFF36F8F0A4B9B6A90
:103EA400834204D15A6F084B9A6207E0134613B158
:103EB4005A6F8242FAD10BB1426F5A6781F311886B
:103EC400BFF36F8F704700BFE80A002010B50446A7
:103ED40040B11F2204F1780002F0B9F8002084F800
:103EE400970010BD014B9C68F3E700BFE80A00206F
:103EF40008B553EA020102D103F0ADF908BD024945
:103F0400183000F043FEF9E7297400002DE9F04F62
:103F140085B004460F4615461E46DDF838A0DDF888
:103F24003C90DDF84080DDF84CB000F15803836527
:103F3400C365129B0422119903F091F92A4639466C
:103F4400204603F076F90546CDF80880CDF80490B4
:103F5400CDF800A03346024639462046FDF7D6FA8E
:103F6400002363656666C4F868A0C4F86C90C4F85E
:103F740070804FF02003EFF3118283F31288BFF3B4
:103F84006F8F134B996A61679C6282F31188BFF348
:103F94006F8FBBF1000F13D01F22594604F1780034
:103FA40002F055F8002384F89730094B9B685BB105
:103FB400D3F8A830C4F8A830284605B0BDE8F08F7F
:103FC400002384F87830F0E7C4F8A830F4E700BFA1
:103FD400E80A002030B587B0214C14E0E36A059369
:103FE400236A0493E3690393A369029363690193C6
:103FF40023690093E368A26861682068FFF786FF7D
:1040040023685C653034174B9C42E7D300F0EEF92B
:10401400134C00E03034134B9C421CD2606AB0F164
:10402400FF3FF7D0256820EAE070C117C90341EAD1
:104034005041C00340F2E733C0184FF47A724FF096
:10404400000341F10001FCF783F802460B462846C1
:10405400FFF74EFFDEE700F0CBFB07B030BD00BF3B
:10406400147C0000147C000008B501E0FDF78CF915
:104074004FF02002EFF3118382F31288BFF36F8FA6
:1040840003F0F2FA054B9861054B1B78002BEDD039
:10409400FCF776FF0028EBD1E8E700BFE80A002030
:1040A400070D00202DE9F04182B004461E464FF072
:1040B4002003EFF3118583F31288BFF36F8F2B4630
:1040C400C16899B9002951D1364A926892F90E20F3
:1040D40022610131E160334A9268A26083F311885E
:1040E400BFF36F8F002002B0BDE8F08117468068EF
:1040F4002C4A92689042E5D056EA070138D090F9EC
:104104000E80414692F90E0003F0DCF8804536DC5F
:104114004FF000080097019622462946224800F0F5
:10412400B3FA0028DFD04FF02003EFF3118583F3B7
:104134001288BFF36F8F2E46A36843B323689C4253
:1041440023D013B3216993F90E0003F0BBF80146A1
:10415400204603F0C2F8E8B9B8F1000F1AD186F38B
:104164001188BFF36F8F6FF00A00BCE72269AFE7D5
:1041740085F31188BFF36F8F6FF00F00B3E701462B
:10418400204603F0AAF88046C4E72169E0E7B8F1C5
:10419400000FE4D02946044800F012F96FF00A0039
:1041A400A1E700BFE80A0020140B002083688BB34A
:1041B40070B504461A4A926893422ED1C368012B03
:1041C40003D9013BC360002070BD4FF02003EFF31F
:1041D400118583F31288BFF36F8F016903F07DF8B3
:1041E400204603F0B8F9A06068B190F90E3023615D
:1041F4000024C0F8B04003F0F9F82946094800F05B
:10420400DFF82046E0E70020E06085F31188BFF383
:104214006F8FD9E76FF0150070474FF0FF30D3E789
:10422400E80A0020140B002038B504464FF02003A0
:10423400EFF3118583F31288BFF36F8F03F08BF9CB
:1042440048B10022C0F8B02003F0D0F8294609484C
:1042540000F0B6F838BDA368E268934208D00122A2
:104264001344A360022104F1100003F0DBFAEDE72C
:104274000022F5E7140B002010B582B04FF02004A3
:10428400EFF3118184F31288BFF36F8F846844B114
:10429400013C846081F31188BFF36F8F002002B06A
:1042A40010BD53EA020406D0009201930246054869
:1042B40000F0EAF9F3E781F31188BFF36F8F6FF031
:1042C4000F00ECE7140B0020C3897F2B0ED8437B2F
:1042D40013F01F0F0CD190F90E20084B1B689A4263
:1042E40008DB074B984207D0012070470020704735
:1042F400002070470020704700207047180B0020F2
:1043040060020020B3F1FF3F08BFB2F1FF3F00D1CC
:10431400704708B50249183000F038FC08BD00BFEA
:104324002974000010B5074B1C6804B910BDFEF7D2
:10433400D3FC0444044B1C610021024B186803F0B5
:10434400AAF9F3E71C0B0020E80A002070B5044624
:104354000E4600234FF02002EFF3118582F31288FA
:10436400BFF36F8F0EE00228B8BF02201860114B14
:104374001E60114B9868FFF7D5FF85F31188BFF3D2
:104384006F8F0123A3B90C4B00221A61610CE00367
:1043940040F2E733C0184FF47A724FF0000341F152
:1043A4000001FBF7D5FE054B1860002CDBDCDEE7D3
:1043B40070BD00BF180B0020E80A00201C0B002071
:1043C40008B50B4659B9EFF3058242B9064AD069DC
:1043D4009268904203D00846FDF73EF803E083F369
:1043E4001188BFF36F8F08BDE80A002000234FF047
:1043F4002002EFF3118182F31288BFF36F8F09E07B
:10440400064B9A68D37B013BD37381F31188BFF3C6
:104414006F8F0123002BF3D0704700BFE80A002000
:1044240038B50446104802F0DAFF054670B184B985
:104434000E4B9B685A7B12F01F0F0AD1AA6942B92E
:10444400DA897F2A05D9094AD3610BE0074BDD6875
:10445400EDE7064B9B68AB4202D02846FFF762FFAC
:10446400024BDD6138BD00BF080B0020E80A0020C4
:1044740038B50546427B90F90D30002B0ADB6B7B87
:1044840063F07F036B731B4B53F8204F9C4210D196
:1044940000240EE002F07F0242730146164802F047
:1044A4006DFFECE763686B602C601D60656017E06E
:1044B40000246CB12146284602F025FF0028F1DCD7
:1044C400002CF6D00B4B5B6A9C42F1D02468F0E7D9
:1044D400084B5A6A03F1200129606A6015605D6225
:1044E400044B9868A84214BF00200120FFF798FFEE
:1044F40038BD00BFE80A0020080B002038B5044688
:10450400074B9D686B7B13F01F0F04D02846FFF701
:1045140009FF204638BD2846FFF7AAFFF6E700BF8B
:10452400E80A0020F8B505464FF02003EFF31186A2
:1045340083F31288BFF36F8F154B9868154B1B6874
:10454400984211D03446134B00221A60124B1B6858
:10455400B3B1FFF7B9FE98B10D4B1B69AB420ADD4D
:104564005B1B0B4A13610EE0FFF7DCFE86F3118838
:10457400BFF36F8F0BE03046FFF7C0FF044602E045
:10458400034B00221A6184F31188BFF36F8FF8BDC7
:10459400E80A0020140B00201C0B0020427B90F939
:1045A4000D30002B33DB70B5044612F01F0F01D120
:1045B400866906B170BD62F07F024273144B53F8F2
:1045C400205F9D4208D1354606E06B686360256034
:1045D4001C606C6017E035466DB12946204602F038
:1045E40092FE0028F1DC002DF6D0094B5B6A9D4257
:1045F400F1D02D68F0E7064B5A6A03F120012160DF
:10460400626014605C620020FFF70AFFD2E7704723
:10461400E80A002010B54FF02003EFF3118483F370
:104624001288BFF36F8F437B13F0040F04D184F31C
:104634001188BFF36F8F10BD23F004034373FFF79A
:10464400ADFF21460148FFF7BBFEF4E7200B002035
:1046540010B50446427B90F90D30002B08DB084B63
:104664009868A04214BF00200120FFF7D9FE10BDB6
:1046740002F07F0242730146024802F07FFEEEE739
:10468400E80A0020080B002010B50C4611460A4821
:1046940082680A4B1A604FF02002EFF3118382F311
:1046A4001288BFF36F8FDDE90223806802F029FFCF
:1046B4002046FCF7D1FE10BDE80A0020140B0020B0
:1046C4002DE9F84305460F4600234FF02002EFF38F
:1046D400118682F31288BFF36F8F184629E063684E
:1046E4006B602C601D60656017E044466CB1214628
:1046F400284602F008FE0028F1DC002CF6D01D4B01
:104704005B6A9C42F1D02468F0E71A4B5A6A03F1C1
:10471400200129606A6015605D620120FFF780FE58
:10472400012001E0AF73002086F31188BFF36F8F7F
:104734000123E3B96B7B13F01F0FF3D1D5F8188075
:10474400B8F1000FEED103F07F036B73DFF828900C
:104754002946484602F012FEAF736B7B63F07F0379
:104764006B73D9F800404C45C0D14446BEE7BDE860
:10477400F88300BFE80A0020080B002038B504467F
:10478400183002F053FF00234FF02002EFF311859D
:1047940082F31288BFF36F8F10E0637B43F0100342
:1047A4006373114B9868A04214BF00200120FFF7E7
:1047B40037FE85F31188BFF36F8F012363B9627BE2
:1047C40094F90D30002BE8DA02F07F02627321467F
:1047D400064802F0D3FDE0E7034B9B68A34200D0F8
:1047E40038BD02F0BFFDFBE7E80A0020080B0020FB
:1047F40010B500234FF02002EFF3118482F31288E6
:10480400BFF36F8F0CE0094B9A68D37B0133D373EA
:104814000020FFF705FE84F31188BFF36F8F012397
:10482400002BF0D002F09EFD10BD00BFE80A00206E
:10483400437B13F0080F2AD110B5044643F0080255
:10484400427323F0200242F00802427312F0800FF8
:1048540013D1A36813B1204602F098FD04F11800A7
:1048640002F0E4FE04F1580002F00BFE0120FFF711
:10487400D7FD2046FFF70AFB10BD03F05F0343F0AA
:10488400080343730146024802F078FDE1E77047EC
:10489400080B002008B5044802F07FFE00210846FA
:1048A400FFF754FD08BD00BF040B0020F8B54FF01E
:1048B4002003EFF3118683F31288BFF36F8F1D4C2F
:1048C400A1684B7B03F07F034B7304F12007384648
:1048D40002F054FDA5686B7B63F07F036B73246A5D
:1048E400BC4208D1002406E063686B602C601D6044
:1048F400656017E000246CB12146284602F003FDF0
:104904000028F1DC002CF6D00A4B5B6A9C42F1D003
:104914002468F0E7074B5A6A03F1200129606A60B2
:1049240015605D620120FFF77BFD3046FCF794FDC6
:10493400F8BD00BFE80A00202DE9F04150EA010368
:1049440038D004460E466FF001031B1A4FF0FF32B5
:1049540062EB0102012B72F100022FDB6FF0010503
:104964002D1A4FF02003EFF3118883F31288BFF35D
:104974006F8F144FB868144B1860FFF769FEB8685E
:10498400224633461149183000F000F9BA68537BC7
:1049940043F0100353734046FCF75EFD02F0A6FE9D
:1049A400281A63EB0303012873F1000300DA0020E3
:1049B400BDE8F081FFF77AFF0020F9E702F096FEE8
:1049C4000519CEE7E80A0020140B00202974000022
:1049D40008B5B1F1FF3F08BFB0F1FF3F18D0FFF7B2
:1049E400ABFFC217510141EAD06143011B1A61EBCD
:1049F4000201890041EA93719B001B1842EB0102FA
:104A0400D20042EA5372C3F3103343EA424008BD72
:104A1400034B9868FFF7B2FE4FF0FF30F7E700BF93
:104A2400E80A0020014B9868704700BFE80A00209C
:104A340070B54FF02003EFF3118583F31288BFF3B1
:104A44006F8F2E46037B13F0010F09D10446437B7D
:104A540013F0080F0FD085F31188BFF36F8F09E0AF
:104A640085F31188BFF36F8F404080F311884FF0B6
:104A7400040002DF70BDFFF7DBFE084B9B68A34216
:104A840004D086F31188BFF36F8FF3E7EFF3058348
:104A9400002BF6D12846FCF7DFFCF2E7E80A0020F9
:104AA4002DE9104883B0089CDDE906BCCDE900BCC3
:104AB400FFF7EAFD1CB1034B9B685B69236003B0FD
:104AC400BDE81088E80A002008B50648064A121A0C
:104AD400064902F056FB064A0649074802F051FB14
:104AE40008BD00BF0000002040020020DC80000060
:104AF40000000000DC80000000000020034B186868
:104B0400984200D070470020FCE700BF7C010020E1
:104B140030B1044A5268904201D0006870470020C6
:104B2400704700BF7C01002008B5044B1B680BB123
:104B3400002008BDFEF7D0F8FBE700BF200B0020E3
:104B440010B5FFF7DBFF0446FFF7EEFF7CB12369E6
:104B540062691B1A62EBE072B3F1004F72F100015B
:104B640008DA002A01DB184606E00023FBE76FF0B1
:104B7400004001E06FF00040034B1B6913B1834216
:104B840000DA184610BD00BFE80A0020B3F1FF3F69
:104B940008BFB2F1FF3F7BD02DE9F04704469246AF
:104BA4001D46816000234FF02002EFF3118782F34A
:104BB4001288BFF36F8F26E01AF1010845F100094E
:104BC400FFF7B2FF18EB000349EBE070236160616B
:104BD4003BE0521A66EB030302614361436863607E
:104BE40020601C60446005E02A4B5A6823606260C0
:104BF40014605C60FFF782FF84423AD087F3118827
:104C0400BFF36F8F0123002B40D153466FF0010196
:104C1400B1EB0A014FF0FF3060EB0502002ACBDB59
:104C24001D4A116852685B1842EB05026FF00101DE
:104C3400C91A60EB020308461A46012973F10003FE
:104C440001DA0120002220616261FFF757FF00288A
:104C5400CAD00269466921696369914273EB060E01
:104C6400B7DB891A63EB060321616361FFF750FF29
:104C7400EDE7FFF765FF034618B1084A126982425F
:104C8400BCD000211846FDF7F5FFB7E7BDE8F08773
:104C9400704700BF7C010020D0030020E80A0020F8
:104CA40070B50446FFF73EFC4FF02003EFF3118686
:104CB40083F31288BFF36F8F284B1C6021E0284ACE
:104CC400136851685B1941EBE57113605160002270
:104CD4000023C4E90423204602F091FC86F31188E2
:104CE400BFF36F8FA368204698474FF02003EFF37C
:104CF400118683F31288BFF36F8F184A13685B1B06
:104D04001360FFF7FBFE044638B105694169134B94
:104D14001A68D317AA428B41D1DA44B12369626974
:104D24000E4909685B1A62EBE172236162610C4A05
:104D34000A4D2868136851681B1841EBE071136031
:104D4400516000242C60FFF7FBFE2146FDF792FF23
:104D540086F31188BFF36F8F70BD00BF200B002056
:104D6400D003002010B500224FF02003EFF311848C
:104D740083F31288BFF36F8F134611460CE0FFF7DD
:104D8400D3FE074A13685168C31841EBE07184F3FA
:104D94001188BFF36F8F0122002AF0D0184610BD8E
:104DA400D003002038B504464FF02003EFF31185FB
:104DB40083F31288BFF36F8F826AC36A52EA0301D6
:104DC40005D0B3F1FF3F08BFB2F1FF3F28D1236BF9
:104DD40001332363236A73B185F31188BFF36F8FA3
:104DE400236A204698474FF02003EFF3118583F39D
:104DF4001288BFF36F8F04F11803A469A34238D05B
:104E0400002C36D0204602F088FA0023C4F8B030D3
:104E140085F31188BFF36F8F204602F0E7FA38BD9F
:104E240002F068FC013041F10001A36AE26AC01893
:104E340041EB0201012871F1000108DA6FF001026F
:104E44004FF0FF330D492046FFF7A0FEBFE702F005
:104E540051FC013041F10003A26AE16A801843EB7E
:104E640001036FF00102121A4FF0FF3161EB0303EB
:104E7400E8E785F31188BFF36F8FD0E7A94D0000F1
:104E84002DE9F0411E46069FDDF81C80B3F1FF3F7B
:104E940008BFB2F1FF3F2FD00546144613463146F2
:104EA4004046B8F1FF3F08BFB7F1FF3F0DD057EAC6
:104EB400080C0AD06FF0010CBCEB070C4FF0FF3C60
:104EC4006CEB080CBCF1000F18DB6FF00102D21A76
:104ED4004FF0FF3262EB0102002A1ADB284602F08F
:104EE400A5FBAF62C5F82C8000232B632246334612
:104EF4000E492846FFF74AFEBDE8F081022F70F103
:104F0400000002DA02274FF00008013F48F1FF38A1
:104F1400DBE71C460E46012B71F1000101DA012486
:104F24000026013C46F1FF36D8E700BFA94D00003A
:104F340038B503464FF02002EFF3118582F312884F
:104F4400BFF36F8FC160012282600068834210D07A
:104F54004268036813605A600023036043600121C0
:104F640002F03EFC044629460548FFF729FA20468C
:104F740038BD85F31188BFF36F8F0024F7E700BFB6
:104F8400240B002008B5024800F083FB08BD00BFD5
:104F94001480000010B584B0084B029300248DF8EF
:104FA4000C4002AB00934FF0FF334FF4806204498E
:104FB400044800F0EFF8204604B010BD448000001F
:104FC400481A0020D803002070B338B50D460446B3
:104FD4001B4B9B6883421BD000231A46D4F8D03065
:104FE400C3F38001C3F3C00013F0010F1FD001B15C
:104FF40002B300B109B300232B60D4F8BC3073B101
:105004001D60C4F8BC50204602F02EFC012038BDBF
:1050140002F01BF908B90123DFE70023DDE7C4F838
:10502400BC50C4F8B850EEE76FF0150070476FF04D
:105034001200ECE76FF00F00E9E76FF00F00E6E70E
:10504400E80A0020F8B50646C36823F00203C360EB
:10505400134B1D6885B12C6804B10DB1002710E015
:105064002C46FBE72A4639460D4802F0EAFB05F1D7
:105074000800FFF7D9F809E02C46EFE72346254658
:105084001C4665B16B68B342ECD02F46002CF5D0BA
:105094002368002BF3D0002CF1D12346EFE7F8BDB1
:1050A400240B002070B584B0054616E0D5F8D03046
:1050B40023F00402C5F8D02013F0040F5AD10023C2
:1050C40002934FF0FF324FF0FF33CDE9002305F197
:1050D400C00231462E48FFF7E3FC4FF02003EFF304
:1050E400118683F31288BFF36F8F3246D5F8B84028
:1050F400002CDBD02368C5F8B830D5F8BC108C423E
:1051040035D0D5F8D03043F00203C5F8D030E36889
:1051140043F00101E16023F0040343F00103E36081
:10512400636882F31188BFF36F8F204698474FF06E
:105134002003EFF3118683F31288BFF36F8FE368C4
:1051440023F00103E36013F0020F1DD1D5F8D03032
:1051540023F00203C5F8D030C3F3002386F311888B
:10516400BFF36F8F002BB8D1FFF7A0FBB5E7C5F8ED
:10517400BC30C6E705F1C80400220121204602F034
:1051840010FA0028F8D19AE72046FFF75BFFDDE725
:105194002C0B0020F0B589B004460E9D0020C4F805
:1051A400B800C4F8BC0004F1C000C4F8C000C4F8DE
:1051B400C40004F1C800C4F8C800C4F8CC00FDB1B0
:1051C4002879F8B90120C4F8D0004FF0FF364FF029
:1051D400FF37CDE906670020049003930290019005
:1051E40000940A4B204602F045F825B1296811B114
:1051F4002046FEF76BFE204602F02DF809B0F0BD04
:105204000120E0E740F20110DDE700BFA9500000F3
:1052140010B50A4C23681BB101230020236010BD84
:1052240000F0F4F80028F7D00138072803D8044B1D
:1052340053F8200010BD034810BD00BF2C0B002004
:1052440050800000FE8FFFFFBFF34F8F0549064BD0
:10525400CA6802F4E0621343CB60BFF34F8F00BF10
:10526400FDE700BF00ED00E00400FA0530B44FF0A4
:10527400FE3200250B4B0C4C0C494968C3F8002442
:10528400C3F80424C3F80824C3F80C24C3F8102476
:10529400C3F81424C3F81824C3F81C24C4F8005514
:1052A40030BC0847005084500040845084010020E2
:1052B400024BD0E90012C3E90012704784010020B8
:1052C40010B5044650B1636813F0685F05D0064A10
:1052D400934202D000236260236010BD034B044854
:1052E4005B689847EFE700BF2C5F5CA9840100204E
:1052F40070800000C8B143680D4A934213D013F084
:10530400685F0ED0012350E8002F194640E8001CC6
:105314009CF0000FF7D1012AF5D0BFF35F8F002076
:10532400704704487047044870476FF4E040704782
:105334002C5F5CA9E98FFFFFEA8FFFFF034680B172
:10534400426809498A420AD012F0685F05D0BFF367
:105354005F8F002210461A60704704487047044863
:1053640070476FF4E04070472C5F5CA9E98FFFFF42
:10537400EA8FFFFF10B5044620B10023034A2360DF
:10538400626010BD0248FFF771FFF6E73A00003A89
:105394009880000070B5194CD0F804C00668C4F8B1
:1053A40004C0D0F808C0C068C4F808C0E060266033
:1053B4000868134B134D18604868D5F818215860D5
:1053C400886812F0685F9860C8680969D8601961D4
:1053D40012D000230C4A05F58A70C5F81431C5F8BB
:1053E400B831C5F81821C5F8BC21B047236805F5C4
:1053F400DC70BDE87040184770BD00BF9401002008
:10540400A4010020440B00202C5F5CA908B500F027
:1054140011F830B900F010F838B9054AC2F80C0A8E
:1054240008BD00F037F8032008BD042008BD00BF04
:10543400005084500020704710B5114800F048F81F
:1054440000B110BD0F4800F043F80028F9D10E4C0C
:10545400204600F03DF80028F3D10C4B0C481C60AA
:1054640000F036F801460028EBD100F02DF8044690
:1054740008B1204610BD00F03FF82046FAE700BF0F
:10548400DC010020D0010020D8010020E001002030
:10549400D401002008B5084800F024F8074800F0BB
:1054A40021F8074800F01EF8064800F01BF8BDE894
:1054B400084000F00BB800BFDC010020D001002040
:1054C400D8010020D401002000207047704700BF9D
:1054D40008B5034B02681B6810689847002008BD94
:1054E4009401002008B5034B02685B681068984774
:1054F400002008BD9401002070B5094C094D2069B5
:10550400AB68984718B1084B08485B689847002176
:10551400074AEB6811602069BDE87040184700BF76
:10552400A40100209401002084010020BC8000001C
:10553400400B002038B513468568046912F4801FB7
:1055440007D012F4402F04D012F0010F01D082F4DE
:10555400402323F4801213F0010F0AD023684FF084
:10556400010C0CFA01FC43EA0C0323602B689847F6
:1055740038BD23684FF0010C0CFA01FC23EA0C033C
:105584002360F3E708B503468C4600681979DA8886
:1055940042EA0C02FFF7CEFF08BD38B50C46056998
:1055A40083685B68984718B923682A685340236066
:1055B40038BD10B582B00C4601A9FFF7EEFF30B933
:1055C4000123A340019A134214BF0120002002B01A
:1055D40010BD08B5034600681B7901219940836812
:1055E4005B69984708BD08B5437933B1014651F862
:1055F400060B83681B68984708BD6FF08500FBE7BE
:1056040030B583B08446084615461C461B680CFB1F
:1056140003F3019301A9FCF759FB10B9019B2B413A
:10562400236003B030BD4279C2B108B584460B464D
:10563400C279042A0ED0C0899CF810209CF80A1064
:1056440011F0200F01D0013AD2B29CF80610FFF7F6
:10565400D7FF08BD026892689089EDE76FF0850076
:10566400704708B520EAE070C117C90341EA504108
:10567400C00340F2E733C0184FF47A724FF00003CE
:1056840041F10001FAF764FDFFF7A2F908BD00201B
:1056940070470FB400B583B004A951F8040B01910D
:1056A400FAF7B0FF03B05DF804EB04B0704708B537
:1056B4000446084611461A46A047FFF7B3F9FCF71B
:1056C4005BF901F00701038B23F007030B4303830A
:1056D40070472DE9F04106460F469046816821B196
:1056E4000C683CB131B90C4604E00C4602E0234698
:1056F40021461C4669B14D6843463A463046A847A0
:10570400002CF4D02368002BF2D0002CF0D12346D7
:10571400EEE7BDE8F081038B13F0070303D10268C1
:105724000AB103207047022B03D0012B06D00020BE
:105734007047428B002AF8D10420704703680BB1EC
:10574400052070470020704710B504468C46038B33
:10575400002A07DB03F007035A1F012A0ED9042B82
:1057640036D010BDD0E900018CE80300002323608B
:10577400636001212046FFF7A4FFF2E7D0E90001AE
:105784008CE80300002222606260062B1BD1DCF847
:10579400003053B1628B013262831A461B68002BBE
:1057A400F7D0002AF5D11346F3E702212046FFF78C
:1057B40088FF2046FFF7AFFF0028D2D0238B43F0A9
:1057C40020032383CDE700212046FFF77AFFF0E78B
:1057D4000021FFF776FF2046FFF79DFF0028C0D089
:1057E400238B43F020032383BBE750B110B50C4651
:1057F40051B1081D00F0C4F810B9A368032B06D8F2
:1058040010BD6FF0150070476FF01500F8E76FF0EA
:105814001500F5E72DE9F04107460C4616461D46EE
:105824001946201D00F0CBF828B180462B4632469D
:1058340021463846C047BDE8F0812DE9F041804655
:105844000C4617461E4604E033463A464046FFF7E8
:10585400E1FF216831B10D68256063688B42F3D1A3
:105864006560F1E7BDE8F08108B54FF0200CEFF377
:1058740011828CF31288BFF36F8F41610121FAF713
:10588400CFFE08BD034670B181B10A688AB14A6887
:1058940092B10020186058609860D860186158610F
:1058A4009861196170476FF0150070476FF015002B
:1058B40070476FF0150070476FF01500704770B5B2
:1058C40005460E46FFF791FF041E30DB4FF0200320
:1058D400EFF3118283F31288BFF36F8F9646B5F806
:1058E40018C00CF0070C6B8B4FF6FF718B422CD059
:1058F4006446BCF1020F08D0BCF1060F19D8DFE8EA
:105904000CF01E1818181E2A1E0001336B83012385
:105914000021084628B100203060686808B306609A
:105924006E6009BB8EF31188BFF36F8F0BBB2046EB
:1059340070BD6FF00404002319461846EAE7BCFA68
:105944008CF1490900230120E4E76FF00A040023E5
:1059540019461846DEE76FF08504002319461846F9
:10596400D8E76E602E60DCE702212846FAF758FE7D
:10597400DDE70023624631462846FFF74BFFD6E7B2
:105984000246B0B1436803F00303022B0BD0032B90
:1059940004D0012B04D06FF01500704703685BB18D
:1059A4000020906070470368002BF9D16FF0150058
:1059B40070476FF0150070476FF01500704710B511
:1059C4000346426802F003028160022A04D0032ADB
:1059D40005D10468002004E00068002401E00024EC
:1059E400204600225A6008B1FFF7A2FA204610BDF3
:1059F40084460268002006E000EB8000013203EBDD
:105A04004003A3F130001378A3F130010929F3D93D
:105A1400CCF80020704730B583B004460191037878
:105A240043F0800303700D460B782A2B18D001A88D
:105A3400FFF7DEFF019B9D420FD0237843F08003E4
:105A440023706060DBB2C3F34003002810DB002244
:105A54001343227863F341022270019803B030BDEE
:105A6400437843F001034370084601300190F5E7A1
:105A74000122EDE710B582B001910B782E2B14BFF3
:105A840000230123427863F341024270C3B1044608
:105A9400019B5A1C01925B782A2B13D001A8FFF7B3
:105AA400A7FFA0602378C3F34003002812DB002281
:105AB4001343227863F341022270019802B010BDAF
:105AC4000846FBE7437843F0040343701046013073
:105AD4000190F3E70122EBE702460B784C3B2E2BB7
